:020000040800F2
:10000000B0220020C1010008814100082F370008FC
:10001000C9400008A7070008156400080000000098
:10002000000000000000000000000000CF450008B4
:10003000450C000800000000394200084546000851
:10004000DB010008DB010008DB010008DB01000820
:10005000DB010008DB010008DB010008470C000899
:10006000DB010008DB010008DB010008DB01000800
:10007000DB010008DB010008DB010008DB010008F0
:10008000DB010008DB010008DB010008C5070008F0
:10009000A9070008DB010008DB010008DB010008FC
:1000A000DB010008DB010008DB010008DB010008C0
:1000B000DB010008DB010008DB010008DB010008B0
:1000C000DB010008DB010008DB010008DB010008A0
:1000D000DB010008CD4F0008155000082150000832
:1000E000DB010008DB010008DB010008DB01000880
:1000F000DB010008DB010008DB010008DB01000870
:10010000DB010008DB010008DB010008DB0100085F
:10011000DB010008DB01000849470008DB0100089B
:10012000DB010008DB010008950B0008DB0100087B
:10013000DB010008DB010008DB010008DD07000827
:10014000D1070008DB010008DB010008A541000819
:10015000DB010008DB010008DB0100082D5000086E
:10016000DB010008DB010008DB010008DB010008FF
:10017000DB010008DB010008DB01000800000000D3
:10018000DB010008DB010008DB010008DB010008DF
:10019000DB010008DB010008DB010008DB010008CF
:1001A0000000000000000000DB010008DFF80CD0B8
:1001B00000F0ACFA0048004715660008B0220020A5
:1001C0000648804706480047FEE7FEE7FEE7FEE7F1
:1001D000FEE7FEE7FEE7FEE7FEE7FEE7F54600087E
:1001E000AD01000840EA01039B0703D009E008C9FC
:1001F000121F08C0042AFAD203E011F8013B00F8EC
:10020000013B521EF9D270472DE9FE4F804681EA2C
:100210000300C00F0C46009021F0004123F0004580
:10022000B8EB0200A94105D24046214690461C4643
:100230000B46024623F00040104347D0270DC7F37A
:100240000A00C3F30A510290401A019040286BDA69
:10025000C3F3130040F4801B0098924620B10023A2
:10026000D2EB030A63EB0B0B01985946C0F1400235
:10027000504600F096F906460D4650465946019AFA
:1002800000F09EF910EB08006141002487EA11524A
:1002900084EAE7731A4340D0009A62B3019A012AB4
:1002A0004FEA075215DC001B61EB02014FF00042E0
:1002B00002EA0752CDE90042001C41F580113246A6
:1002C0002B4600F0D5F903B0BDE8F08F404621463B
:1002D000F9E7001B61EB0201001C41F580130018D7
:1002E0005B412018A2F5001747EB030140EAD570E7
:1002F000B6196D4111E06D084FEA360645EAC07542
:100300004FEA0752001B61EB0201001C41F580110E
:1003100049084FEA30000019514132462B4603B0DC
:10032000BDE8F04F00F095B900980122400000238D
:10033000D0EB020263EBE073009821464FEAE074D1
:10034000B8EB000061EB0401E9E783F000435BE7F1
:1003500081F0004158E72DE9FE4F81EA030404F0E3
:10036000004421F0004100944FF0000B23F00043C3
:1003700050EA01045ED052EA03045BD0C3F30A548E
:10038000C1F30A552C44A4F2F3340194A0FB0254A7
:10039000C1F3130141F48011C3F3130343F4801339
:1003A00001FB024400FB034E840A970A44EA81548D
:1003B00047EA8357A4FB076802958D0A05FB07856A
:1003C0004FEA932C04FB0C542705029D4FEA065874
:1003D00047EA1637B5EB08056EEB070C870E920E51
:1003E00047EA811742EA8312A7FB0201B6EB0B0131
:1003F00064EB00042B0D43EA0C335E1844EB1C50F5
:10040000DA465146E7FB0201C5F313044FEA0B330A
:1004100043EA14534FEA0432019C43EA0603A4F171
:100420000C040294009CCDE900B400F021F903B063
:10043000BDE8F08F00200146F9E72DE9F04D81EA93
:10044000030404F0004B21F0004514464FF0000A6D
:1004500023F0004150EA050220D054EA01021DD0E9
:10046000C5F30A570246C5F31303C1F31300C1F3E2
:100470000A5640F4801543F48013A7EB0608101BBE
:10048000D64608F2FD3873EB050002D308F10108E7
:1004900001E092185B41B8F1000F03DA0020014639
:1004A000BDE8F08D00204FF48011064684460EE032
:1004B000171B73EB050705D3121B63EB05030643FC
:1004C0004CEA010C49084FEA300092185B4150EAAF
:1004D0000107EDD152EA030012D082EA040083EA58
:1004E0000501084305D0101BAB4106D201220023B1
:1004F00006E000224FF0004302E06FF001025310CB
:100500001AEB06004CEB085110EB0A0041EB0B0113
:10051000BDE8F04D00F09DB800F0004230F0004022
:100520000AD0C10D01F56071C0F3160042EA015115
:10053000C20840071143704700200146704701F090
:10054000004330B421F0004150EA010206D00A0D08
:10055000A2F56072C1F31301002A02DC30BC002056
:100560007047440F44EAC104C100E01830BC00EBFE
:10057000C25000F037B830B50B46014600202022AB
:10058000012409E021FA02F59D4205D303FA02F5A0
:10059000491B04FA02F52844151EA2F10102F1DC00
:1005A00030BD202A04DB203A00FA02F10020704717
:1005B0009140C2F1200320FA03F3194390407047A1
:1005C000202A06DBCB17203A41FA02F043EAE07317
:1005D00006E041FA02F3D040C2F120029140084304
:1005E000194670470029A8BF7047401C490008BF42
:1005F00020F00100704710B4B0FA80FC00FA0CF053
:1006000050EA010404BF10BC704749B1CCF120048A
:1006100021FA04F411FA0CF118BF01212143084317
:10062000A3EB0C01CB1D4FEA00614FEA102042BF43
:10063000002010BC704700EBC35010440029A4BF39
:1006400010BC7047401C490008BF20F0010010BCDE
:10065000704710B5141E73F1000408DA401C41F114
:10066000000192185B411A4301D120F0010010BD36
:100670002DE9F04D92469B4611B1B1FA81F202E0AC
:10068000B0FA80F220329046FFF78BFF04460F4607
:1006900040EA0A0041EA0B0153465A46084313D088
:1006A000114653EA010019D0C8F14002504600F04B
:1006B0003FF805460E46504659464246FFF771FF41
:1006C000084305D0012004E020463946BDE8F08DFE
:1006D0000020054346EAE0762C4337430A98630539
:1006E000E40AA0EB08000022FD0A44EA47540A305D
:1006F00002D500200146E9E7010510196941DDE94D
:10070000084500196941BDE8F04DA2E7064C074DC8
:1007100006E0E06840F0010394E8070098471034D1
:10072000AC42F6D3FFF746FD1C6800083C680008A1
:10073000202A04DB203A21FA02F00021704721FA36
:1007400002F3D040C2F1200291400843194670479D
:1007500070B58C1810F8015B15F0070301D110F883
:10076000013B2A1106D110F8012B03E010F8016BB0
:1007700001F8016B5B1EF9D12B0705D40023521E33
:100780000DD401F8013BFAE710F8013BCB1A921C9B
:1007900003E013F8015B01F8015B521EF9D5A14299
:1007A000D8D3002070BDFEE710B5044800F0C4FAAD
:1007B000BDE81040024803F089BC0000180B00207F
:1007C00074040020014800F0B7BA0000180B0020A4
:1007D000014800F0B1BA0000580B0020014800F0B9
:1007E000ABBA0000580B002010B54FF4D872036864
:1007F00002EB01129B5813F00404436B9C600468E5
:10080000436BA45856D0E4085C6003689A58436B65
:1008100002F00202DA604FF4DA72036802EB0112AE
:100820009B58446B03F00F032361436B1962036809
:100830009A58436BC2F30722DA614FF4DC72036803
:1008400002EB01129B58446B237503689B58446B61
:100850001B0A637503689B58446B1B0CA3750368E4
:100860009A58436B120EDA754FF4DE72036802EB8E
:1008700001129B58446B237603689B58446B1B0AF8
:10088000637603689B58446B1B0CA37603689A58E5
:10089000436B120EDA762022002901680DD00A611E
:1008A00001684A6922F010024A6190F83810222942
:1008B00009D021E0640D1C60A7E7CA6001684A699D
:1008C00022F00202F0E701684A6922F480724A616C
:1008D00001684A6922F400724A6101684A6922F497
:1008E00080624A6101684A6922F400624A610168D3
:1008F0004A6922F400424A6190F83810322907D040
:100900005FF0010180F8381000F02EFC002010BDCF
:100910001221F7E7F0B404AF97E87000076B3D6071
:10092000076B0025BD60076BFD60056B2E61066BD4
:100930000D0A3575056B6975056B110AA975016B93
:10094000CA75026B190A1176016B4B76026B210A8C
:100950009176016BCC76F0BC012100F015BC10B58E
:1009600001684A6922F001024A6190F838101229A0
:1009700018D101684A6922F480724A6101684A69A3
:1009800022F400724A6101684A6922F480624A6175
:1009900001684A6922F400624A6101684A6922F4E6
:1009A00000424A6190F83810322906D0012180F8BF
:1009B000381000F0B3FC002010BD2221F7E7002022
:1009C000704700207047000010B500220549064816
:1009D00004F002FC03490448091F04F0F7FB00205F
:1009E00010BD0000C40200209804002010B501468C
:1009F000034804F0EBFB024804F0CCFB002010BDE0
:100A00009804002000B58BB000210122CDE9061228
:100A1000039108920E220D4B0491009101910291D5
:100A20000992984204D10591094901631C3141633F
:100A30000849884205D106490592403101631C31BD
:100A40004163694600F004F90BB000BD180B0020AB
:100A5000940D0020580B002070B54C4CA06C012860
:100A600007D00020E06420656065A065E065206631
:100A700070BD606C032802D0012827D076E0606B3F
:100A8000B4F90420C0F58063206BA3EB4201C0F5EC
:100A900080600D1A03EB42021318014405EB450573
:100AA000A3EB830301EB4101101AAD009B00890009
:100AB000A0EB80008000C4E91B10C4E91953B4F90D
:100AC00006000A2190FBF1F0E18D4DE0206C304DE5
:100AD00001280CD140F28266304605F05DFE3046BA
:100AE00005F070FE01220221284600F0E7FE206C8E
:100AF00003280CD140F24136304605F04DFE304619
:100B000005F060FE00220221284600F0D7FE606B4F
:100B1000C0F58063A06BC0F58062206B991AC0F5A8
:100B200080600D1A1A4413180144101A01EB410198
:100B3000A0EB800089008000C4E91B1005EB45058F
:100B4000A3EB8303AD009B00C4E91953E06BB4F938
:100B50002A10B4F92C20C0F58060891A48434FF45C
:100B6000A56190FBF1F0218D0844E085B4F92E10C9
:100B7000B4F92A00814200DDE085B4F92E10B4F901
:100B80002C008142BFF674AFE08570BD500100209B
:100B900000140240014800F01BBC000014040020B7
:100BA00001681823CAB2103AB2FBF3F2054B6FF397
:100BB0000901032A9B5CC36500D9091D81650846AC
:100BC000704700000068000810B5014600208B69DE
:100BD0008A6A4FF0C07453B1B3F5005F15D072B19B
:100BE000012A0CD0022A0AD0032A09D104E01AB142
:100BF000012A06D0022A03D1C96AC90100D5012001
:100C000010BDC96AA142FAD010BD002AF7D0012A4E
:100C1000F2D0022AF3D0032AF3D010BD30B5046815
:100C2000256825F480252560046863608368402B6F
:100C3000036803D099600068C26030BD9A600068A4
:100C4000C16030BD7047022000F046BDFEE70000E5
:100C5000F0B50A7D01209040344A136843F0010347
:100C60001360136823F47C53136013684C6A43EADF
:100C7000042313602D4B1C331C6884431C602B4DD4
:100C80002B4CCE690C35A6B92E6886432E608F8911
:100C90004E6867F31F464F6904EBC707C7F8406605
:100CA0000F890E6867F31F464F6904EBC707C7F843
:100CB0004466CE69012E14D12E6806432E600E883C
:100CC0004D6866F31F454E6904EBC606C6F84056EC
:100CD0000E89CD6866F31F454E6904EBC604C4F85F
:100CE0004456124C8D69241D002D256806D00543FD
:100CF00025600E4C0D69143415B104E08543F7E707
:100D00002568854325600D69012D02D125680543BD
:100D10002560096A012902D1196801431960106828
:100D200020F0010010600020F0BD000000660040CF
:100D3000006000407047000010B50446006841693B
:100D4000C943C90714D182685849914368D000212A
:100D50008368574A9A4365D0002283685548984370
:100D600062D000201143014302D02046FFF7F7FD77
:100D70002068C168406911F0030FC0F3400004D03F
:100D800018B100212046FFF72FFD21680869496945
:100D900010F0030FC1F3001104D019B10121204656
:100DA000FFF722FD20688169426911F0010FC2F34B
:100DB00000234269C2F3C03205D023B11AB1E16BFE
:100DC00041F00101E1638169C1F340034169426976
:100DD000C1F34021C2F3C0322BB121B11AB1E16B92
:100DE00041F00201E16381694269C1F38001C2F30C
:100DF00080234269C2F3C03229B123B11AB1E16B39
:100E000041F00401E163816911F0700F0ED00021FF
:100E100042694369C2F3C022C3F3C03341B127E042
:100E2000012195E7012298E701209BE70121EFE7E7
:100E3000F2B1EBB1816901F07001402929D006DCE3
:100E4000102909D020290BD030290DD11DE05029BF
:100E500023D0602908D124E0E16B41F0080102E0D1
:100E6000E16B41F01001E163816921F07001816162
:100E7000E06B002808D0216804204860012084F835
:100E800038002046FFF756FF10BDE16B41F020010E
:100E9000E9E7E16B41F04001E5E7E16B41F08001FA
:100EA000E1E7E16B41F48071DDE70000030000043D
:100EB00000030008000003102DE9F041040004D0F5
:100EC00094F83800002518B107E00120BDE8F08152
:100ED00084F83950204600F093F8022084F8380056
:100EE0002068016821F0020101602068016841F07A
:100EF0000101016000F0E8FC0746032605E000BFA1
:100F000000F0E2FCC01B0A2863D820684068C007D4
:100F1000F6D020684168C90768D0A1690129016835
:100F20003FD021F080010160E0690128206801685C
:100F30003AD021F040010160206A01282068016850
:100F400035D021F020010160606A01282068016825
:100F500030D021F010010160A06A012820680168EA
:100F60002BD021F008010160E06A012820680168A7
:100F700026D021F004010160D4E902010843D4E93C
:100F80000412114308436168491E08432168C8617F
:100F90002068016821F00101016000F095FC07461E
:100FA0001CE041F08001BEE741F04001C3E741F0A1
:100FB0002001C8E741F01001CDE741F00801D2E778
:100FC00041F00401D7E700BF00F07EFCC01B0A28F7
:100FD00004D904F8386F0320657077E7206840680B
:100FE000C007F1D120684068C00703D0042084F80E
:100FF00038006AE7E563012084F83800002065E7DF
:10100000F0B5324B0768DFF8C0C01868032202242D
:1010100009252F490026401C87B0674521D118605B
:10102000012807D1086840F000700860086800F0E7
:10103000007005908DE85400CDE9032569462548E8
:1010400000F056FB01221146132000F0F7FC13209C
:1010500000F0E9FC01221146142000F0EFFC1420FE
:101060002EE0DFF874C067452CD10F6847F0806729
:101070000F600F68012807F080670597186007D197
:10108000086840F000700860086800F00070059083
:101090004FF440508DE85100CDE9032569460F48D3
:1010A00000F026FB012211463F2000F0C7FC3F2044
:1010B00000F0B9FC01221146402000F0BFFC4020A6
:1010C00000F0B1FC07B0F0BD00640040C802002091
:1010D00040380240000C024000680040000402401A
:1010E00010B590F83820012A01D0122A39D190F891
:1010F0003920012A35D0012280F8392090F8382093
:10110000122A29D05FF0220280F838200022C26320
:1011100003685C6944F480745C6103685C6944F44E
:1011200000745C6103685C6944F480645C6103681A
:101130005C6944F400645C6103685C6944F40044E5
:101140005C6180F8392000680029416906D041F0CF
:1011500010014161002010BD3222D5E741F00201AB
:10116000F7E7022010BD000010B500210448FFF78A
:10117000B7FFBDE8104000210248FFF7B1BF0000F3
:10118000180B0020580B00202DE9F05F0E46016877
:1011900004468868400105D48868000102D4886844
:1011A000C00067D594F8390001280ED0012784F8D3
:1011B000397094F8380022280AD0122084F83800B8
:1011C0008868400106D500250AE00220BDE8F09FAE
:1011D0003220F3E78868000101D5012500E00225EF
:1011E0004FF4C07000EB05100A5802F001020A50DB
:1011F000216B8A68EAB3D4F800C05CF8003013436E
:10120000CA68496842EAC1010B434CF80030216BBF
:101210000A7C02F00F020A614FF4C271226801EBEE
:101220000511535823F00F03535022685358D4F834
:1012300030C0DCF810C043EA0C035350216B4FF46C
:10124000C47303EB05130A7DD1F8151042EA01219E
:101250002268D150216B4FF4C67303EB05130A7E4D
:10126000D1F8191042EA01212268D15021680A58A8
:1012700001E00DE046E042F001020A5000F024FBDC
:1012800081464FF00008DFF888A0DFF888B019E049
:1012900022681358D1F80CC0098843EA0C0343EACA
:1012A00041511150B3E7701C0CD02EB100F00CFB73
:1012B000A0EB0900B04205D9032084F8380084F877
:1012C000398083E795B12068012D816813D01248D9
:1012D00088430028E7D194F8380032280ED084F8EB
:1012E000387000BF84F8398000206FE7206881687B
:1012F0002AEA0100EDE72BEA0100EAE7222084F860
:101300003800EFE7042084F8380001205EE7000091
:1013100003000004000300080000031070472DE9DB
:10132000F0410446876D00F0CFFA064694F8350088
:101330000025022806D08020606584F83450012002
:10134000BDE8F0812068016821F016010160206885
:10135000416921F080014161206C08B9A06C20B185
:101360002068016821F0080101602068016821F00F
:10137000010101600BE000F0A7FA801B052806D9E7
:101380002020606504F8345F03206070D8E720688F
:101390000068C007EFD194F85C103F208840B86027
:1013A00004F8345F012060700020C9E790F8351020
:1013B000022903D08021416501207047052180F872
:1013C00035100068016821F00101016000207047BC
:1013D0002DE9F84304464FF00008CDF8008064483A
:1013E0004FF41651A56D0068B0FBF1F72E6894F824
:1013F0005C10082000FA01F131420FD021680A6820
:1014000052070BD50A6822F004020A6094F85C10B7
:101410008840A860606D40F00100606594F85C1041
:1014200054488840304208D021684969090604D5EB
:10143000A860606D40F0020060654E4894F85C1052
:10144000C01C8840304208D021680968890704D54B
:10145000A860606D40F00400606594F85C10102096
:101460008840304218D021680968090714D5A8605F
:1014700020680168490304D50068000308D5A16C01
:1014800007E00168C90503D4016821F00801016083
:10149000216C09B12046884794F85C1020208840D0
:1014A00030424FF0010631D021680968C9062DD5B8
:1014B000A86094F8350005282068016806D0490323
:1014C00047D5006800031DD4616C1CE021F01601B3
:1014D00001602068416921F080014161206C08B9F8
:1014E000A06C20B12068016821F00801016094F827
:1014F0005C103F208840A86084F8348084F8356010
:10150000216D1FE0E16B09B120468847606D00281E
:101510002BD0606DC00714D0052084F835002068FA
:10152000016821F0010101600098401C0090B84260
:1015300003D820680068C007F6D184F8348084F8A6
:101540003560E16C002910D001B02046BDE8F043C1
:1015500008470168C905D5D4016821F01001016070
:1015600084F8348084F83560CCE7BDE8F883000067
:10157000CC020020010080002DE9F041044600F07B
:10158000A3F906465CB1002584F83450022084F8A3
:1015900035002068016821F0010101600DE00120A3
:1015A000BDE8F08100F090F9801B052805D92020C6
:1015B0006065032084F83500F2E720680068C00702
:1015C000F0D1226811681F480140D4E90103184393
:1015D000D4E903363343184363691843A3691843B6
:1015E000E3691843236A18430843616A042903D155
:1015F000D4E90B1319430843106020684069666AF8
:1016000020F0070130460E43012704280AD1A06AC2
:1016100006432046FFF7D8FA20B14020606584F8E1
:101620003570BCE7206846612046FFF7B9FA94F8A8
:101630005C203F2191408160656584F83570002011
:10164000AEE700003F8010F02DE9F0410446866DC2
:1016500090F83400002501280DD0012084F83400D2
:1016600094F835700020012F07D084F8340002254B
:101670002846BDE8F0810220FBE7022784F8357098
:1016800060652046FFF7CAFA94F85C103F20884056
:10169000B0602068016841F016010160206841696E
:1016A00041F080014161206C20B12068016841F067
:1016B000080101602068016841F001010160D7E77D
:1016C00031B500F001F9044600F0FEF80099001B66
:1016D0008842F9D338BD7047044910B50A68024200
:1016E00002D00860FFF7F7FF10BD0000143C014076
:1016F0002DE9F84FDFF890B100224FF001084FF0CC
:10170000030A4FF00F090BF1040E00BF0B6808FA33
:1017100002F42340A3426ED14D68022D01D0122D58
:101720000ED1D50800EB850CDCF820505607F70EDB
:1017300009FA07F6B5430E69BE402E43CCF8206087
:10174000066855000F790AFA05FC07F0030726EA38
:101750000C06AF40374307604E68012E05D0022EBD
:1017600003D0112E01D0122E0ED18768CE6827EA41
:101770000C07AE403E4386604668A6430C79C4F32E
:101780000014944034434460C4688E6824EA0C0416
:10179000AE402643C6604C68E4006FD53B4C2568DC
:1017A00045F480452560246822F0030504F4804454
:1017B0000094374C2E19D6F8084895072F0F09FAD0
:1017C00007F5AC43334DA84201D100252EE0324D40
:1017D000A84201D1012529E0304DA84201D10225BE
:1017E00024E02F4DA84201D103251FE02D4DA84232
:1017F00002D104251AE041E02B4DA84201D1052574
:1018000014E02A4DA84201D106250FE0284DA84238
:1018100001D107250AE0274DA84201D1082505E09E
:10182000254DA84201D1092500E00A25BD402543E8
:10183000C6F80858DBF800405D464E689C43F60346
:1018400000D51C432C60DEF8004075464E689C4372
:10185000B60300D51C432C600B4D08352C684E6830
:101860009C43F60200D51C432C60074D0C352C68B8
:101870004E689C43B60200D51C432C60521C102AB3
:10188000FFF444AFBDE8F88F003C0140443802400B
:101890000030014000000240000402400008024005
:1018A000000C0240001002400014024000180240E8
:1018B000001C024000200240002402400AB1816165
:1018C00070470904FBE7000001480068704700000A
:1018D0000000002002480168491C016070470000B8
:1018E000000000200B4810B5016841F40071016050
:1018F000016841F480610160016841F48071016018
:10190000032000F0BBF8002000F006F800F018F803
:10191000002010BD003C024010B5044607484FF4BB
:101920007A710068B0FBF1F001F081F900222146E4
:10193000501E00F083F8002010BD0000CC020020F3
:1019400010B5052000F09AF8002211466FF00B0048
:1019500000F074F8002211466FF00A0000F06EF8F3
:10196000002211466FF0090000F068F800221146CD
:10197000501F00F063F800221146101F00F05EF8BF
:1019800000221146901E00F059F80022BDE81040D8
:101990001146501E00F052B82DE9F04116460F4690
:1019A000040004D094F83900002518B107E00120A4
:1019B000BDE8F08184F83850204601F021FD242054
:1019C00084F839002068C16821F40051C1602046C4
:1019D00003F042F92068016921F490410161206817
:1019E000416921F02A0141612068016921F00F015C
:1019F000016120680169394301612068C16821F4EF
:101A00000061C1602068C1683143C1602068C1685D
:101A100041F40051C160E563202084F8390084F866
:101A20003A000020C4E700F01F0201219140400964
:101A3000800000F1E020C0F800117047F0B40E4BB8
:101A40001B680C46C3F30223C3F10705042D00D91C
:101A50000425191D072901D2002300E0DB1E012601
:101A600006FA05F1491E214099409E40761E164017
:101A70003143F0BC02F085BB0CED00E0064900F0FC
:101A8000070208684FF6FF03184040EA0220034AA5
:101A900010430860704700000CED00E00000FA05FC
:101AA0000068416200207047F0B500680023446A76
:101AB00031B1856A4FF4827604EB15444D1E0AE07D
:101AC00044EA024181620FE006EB8307C7595B1CC1
:101AD00004EB1744DBB2AB42F6D34FF4807303EB55
:101AE000810144EA024242500020F0BDD0F8B40324
:101AF00003F0B0BDC1EBC10200EB8202D0F8B40329
:101B0000526C03F01DBDC1EBC10200EB8202D0F8A4
:101B1000B403D2F8E82103F068BDD0F8B40303F0B1
:101B20009BBD10B504460A460B0601F07F00C0EBD2
:101B3000C00104EB810101D5383101E001F5EE71FE
:101B40000870D009487094F88003012809D001205A
:101B500084F88003206804F079F8002084F880037A
:101B600010BD022010BD70B50A460446090602F0F9
:101B70007F0005D5C0EBC00104EB8101383105E0E1
:101B8000C2EBC20104EB810101F5EE7100258D70FD
:101B90000870D009487094F88003012809D001200A
:101BA00084F88003206804F008FA84F88053002049
:101BB00070BD022070BD01F07F01C1EBC10100EBDF
:101BC0008100B0F8F40180B2704770B504460D464C
:101BD0000E0601F07F00C0EBC00104EB810101D5CE
:101BE000383101E001F5EE71ED0908704D708A6041
:101BF000CB7000D0C8800025022B00D10D7194F865
:101C00008003012809D0012084F88003206803F0B4
:101C100075FF284684F8805370BD022070BD000017
:101C200070B504460E4601F07F00C0EBC00104EB26
:101C300081010025C1F8E821C1E97C3581F8DD5139
:101C400081F8DC01206901F5EE71012800D10A61FB
:101C500094F8800301280DD0012084F880037006D9
:101C6000227C206808D004F009FA00BF84F8805371
:101C7000002070BD022070BD04F0E0F8F6E770B5FA
:101C80000D460446090605F07F0005D5C0EBC001EE
:101C900004EB8101383105E0C5EBC50104EB81019E
:101CA00001F5EE7101228A700870E809487094F815
:101CB0008003012807D084F88023206804F0AFF95E
:101CC000680602D007E0022070BD217C04F5617235
:101CD000206804F053F9002084F8800370BD70B5CB
:101CE00004460E4601F07F00C0EBC00104EB810109
:101CF00000254A64C1E91335012381F8393001F820
:101D0000380F2069012800D10A6194F88003012866
:101D10000BD084F880337006227C206807D004F052
:101D2000ADF984F88053002070BD022070BD04F02E
:101D300085F8F6E72DE9F84F0446006800260546C9
:101D400004F0F0FA002875D1206804F014FB002894
:101D500070D0206804F00FFB800704D5206841692B
:101D600001F002014161206804F005FB010304F564
:101D700061704FF0010B4FF0000A00904DD52068C4
:101D800004F0DBFA074646E0F80742D0F1B22068DB
:101D900004F0E9FA8046C00728D005EB4612C2F8E5
:101DA00008BB2069012811D1C6EBC60004EB8001F5
:101DB000D2F8102BD1F8E401C2F31202821AC1F852
:101DC000F421D1F8E8211044C1F8E801F1B220462D
:101DD000FFF799FE2069012808D13EB9D4F8F00137
:101DE00020B920680121009A04F0C8F85FEA087061
:101DF00007D5204600F0E8FA05EB46110820C1F8A7
:101E0000080B5FEAC86004D505EB46111020C1F845
:101E1000080B7F08761C002FB6D1206804F0ABFABF
:101E200040034FF040095ED5206804F07FFA074672
:101E3000002656E0D2E1F80751D0F1B2206804F054
:101E400083FA8046C00724D0D5F834280BFA06F070
:101E50008243C5F8342805EB4610C0F808B920695C
:101E6000012807D1C6EBC60004EB8000D0E91012B0
:101E700011444164F1B22046FFF73CFE206901287D
:101E800007D136B9E06C20B920680121009A04F02E
:101E900075F85FEA087004D505EB46110820C1F813
:101EA00008095FEAC86004D505EB46111020C1F8A7
:101EB00008095FEA486003D505EB4611C1F80899A7
:101EC0005FEA887004D505EB46110220C1F80809C5
:101ED0005FEA086003D53146204602F069F97F08C1
:101EE000761C002FA7D1206804F045FA00280DDAEF
:101EF000D5F8040820F00100C5F80408204600F0D9
:101F000049FA2168486900F000404861206804F0FF
:101F100032FA00050BD5D5F80808C00702D02046D4
:101F200000F06EFA2068416901F4006141612068A7
:101F300004F021FAC0044CD5D5F8040820F00100C3
:101F4000C5F804080021206804F0BCF90020FF2136
:101F500007E000BF05EB4012C2F80819C2F8081BE1
:101F6000401C62688242F5D84FF0FF30C5F818086F
:101F7000D5F81C0840F00110C5F81C08206B60B1B2
:101F8000D5F8840840F00B00C5F88408D5F844085B
:101F900040F00B00C5F844080BE0D5F8140840F0F9
:101FA0000B00C5F81408D5F8100840F00B00C5F870
:101FB0001008D5F8000820F4FE60C5F80008217C60
:101FC0002068009A03F0DAFF2168486900F4805025
:101FD0004861206804F0CFF980047DD5206803F0C3
:101FE000CDFD2068C16821F47051C160206804F003
:101FF0007BF978B10320C4F81490E06000F0D6FAC1
:102000007749784A014491420AD22068C16841F474
:10201000705158E04FF40070C4F80CA0606136E0D5
:102020007149724A0144914204D22068C16841F466
:10203000605148E06E496F4A0144914204D22068E1
:10204000C16841F450513EE06B496C4A01449142F1
:1020500004D22068C16841F4405134E06849694ABB
:102060000144914204D22068C16841F430512AE011
:102070006549664A0144914204D22068C16841F42E
:10208000205120E06249421862498A4204D2206805
:10209000C16841F4105116E05F49604A0144914221
:1020A00004D22068C16841F400510CE05C49084446
:1020B0005C4988422068C16803D241F4E05102E0E3
:1020C0000AE041F4C051C160204600F053F9206895
:1020D000416901F400514161206804F04CF9C006E7
:1020E00036D52168886920F010008861D5F82080F5
:1020F00008F00F00C0EBC00004EB8007C8F34340BA
:1021000007F5EE77022802D0062812D01BE047F62A
:10211000F07018EA000F16D0C8F30A12904628464D
:10212000F96804F02CF9F8684044F860B869404454
:1021300008E008222846009904F021F9B969C8F39B
:102140000A100844B8612068816941F0100181617A
:10215000206804F010F9000707D5204600F01EF9AA
:102160002068416901F008014161206804F003F929
:10217000C00208D5F1B2204600F056F82068416947
:1021800001F480114161206804F0F5F8800208D55F
:10219000F1B2204600F04CF82068416901F40011CA
:1021A0004161206804F0E7F8400007D52046FFF7BA
:1021B0009DFC2068416901F080414161206804F084
:1021C000DAF840070AD520684568680702D5204636
:1021D000FFF7A3FC2068416829434160BDE8F88F00
:1021E000405327FF00350C00401E1BFF40420F00EC
:1021F00000DC0BFF804F1200808CF9FE20D613000C
:1022000060B6E5FE60E3160000D3CEFE40771B000B
:10221000C05BB3FEC091210000CA91FE207538005A
:10222000E05459FEE09C4100D0F8B40303F064BAD6
:10223000D0F8B40303F062BAF0B58BB004004FF0ED
:10224000000556D0032084F88103204600F054F89E
:10225000206803F0EDFD04F1100128220F466846C6
:10226000FDF7C0FF94E80F0003F0A2FC00212068F6
:1022700004F095F801260020C5EBC50104EB8101AF
:1022800081F8396001F8385FCD80C8708860C86017
:102290006D1C48610F2DEFD300214FF4827300BFF6
:1022A000C1EBC10204EB820203EB810582F8DD0180
:1022B00082F8DC11D18782F8DF01C2F8E401C2F8AC
:1022C000E801C2F8F00122685051491C0F29E7D3F8
:1022D000282239466846FDF785FF94E80F0003F091
:1022E00005FD84F88163206803F0F3FC00200BB047
:1022F000F0BD0120FBE70000F0B5006887B0B0F149
:10230000A04F31D14FF480500224CDE9000402AA3D
:10231000012003250A2682E86100144F69463846E9
:10232000FFF7E6F9A002CDE9000402AA002082E846
:10233000610069463846FFF7DBF90D48016841F056
:10234000800101600A481030016841F48041016059
:102350000068022200F48040059001214320FFF72D
:102360006DFB4320FFF75FFB07B0F0BD00000240AC
:102370003438024010B50446C068012100B900217C
:10238000D4F8B40303F0FEF9D4F8B403BDE8104068
:1023900003F0C7B9D0F8B40303F0E2B9D0F8B4033E
:1023A00003F0E4B910B5044690F88003012809D081
:1023B000012084F88003206804F007F8002084F8E6
:1023C000800310BD022010BDD0F8B42300F5617168
:1023D000104603F0E1B910B5044690F880030128D7
:1023E0000CD0012084F88003206803F066FC20688C
:1023F00003F052FF002084F8800310BD022010BDBE
:1024000010B50446D0F8B40303F001FA2068D0F800
:10241000001E41F00101C0F8001E206A002804D00F
:102420000248016841F00601016010BD10ED00E0B6
:102430002DE9F047DFF8649105460F46D9F8000012
:1024400000F00F01F8B28046B94208D2014689F87F
:102450000010D9F8000000F00F00B84274D12878BD
:102460004F4C800705D52068A96820F0F00008438C
:1024700020602878C00759D0494968680839012880
:102480001AD002281BD0032819D00968890700290F
:102490005ADA216821F0030101432160FFF714FAA1
:1024A0006968064641F28830012911D002291DD001
:1024B0000329824627D035E009688903E7E70968E0
:1024C0008901E4E7FFF700FA811B514501D926E0B5
:1024D00082462068C0F381000128F3D126E000BFC6
:1024E000FFF7F2F9811B514501D918E082462068B7
:1024F000C0F381000228F3D118E000BFFFF7E4F930
:10250000811B51450BD82068C0F381000328F5D109
:102510000CE000BFFFF7D8F9811B514502D9032019
:10252000BDE8F087206810F00C0FF3D1D9F8001047
:10253000484601F00F01B94208D980F800800068D0
:1025400000F00F00B84201D00120E9E728784007E9
:1025500005D52068E96820F4E05008432060287819
:10256000000706D52068296920F4604040EAC100D0
:10257000206000F051F82168F02292FAA2F201F0F6
:10258000F001B2FA82F2D140064A515CC8400649D5
:1025900008600020FFF7C0F90020C1E7003C0240BE
:1025A00008380240F0670008CC02002001480068AB
:1025B00070470000CC0200200848094900680968FB
:1025C0004FF4E05292FAA2F201F4E051B2FA82F230
:1025D000D140044A515CC84070470000CC02002042
:1025E00008380240F067000808480949006809688F
:1025F0004FF4604292FAA2F201F46041B2FA82F220
:10260000D140044A515CC84070470000CC02002011
:1026100008380240F067000830B51948006810F02B
:102620000C01184812D0184C04290ED008290DD1DD
:102630001349091F0A6802F03F030A68550247F66A
:10264000C07204D5B4FBF3F003E0204630BDB0FB0C
:10265000F3F00B680968134092FAA2F2B2FA82F220
:10266000D34058434FF4403292FAA2F201F4403181
:10267000B2FA82F2D140491C4900B0FBF1F030BD02
:10268000083802400024F400001BB7002DE9F84F81
:102690000446DFF8CC820078A8F1040BC007ABF148
:1026A000040537D0D8F800104046C1F38101012954
:1026B00008D00068C0F3810002280AD1DBF80000CE
:1026C000400206D52868800324D56068002878D0A9
:1026D00020E0A3492079891F0870606868B1FFF77E
:1026E000F3F8064605E000BFFFF7EEF8801B64280C
:1026F00068D828688003F7D50CE0FFF7E5F80646B0
:1027000005E000BFFFF7E0F8801B6428F0D82868D8
:102710008003F7D42078934E80074FF0010A4FF0E2
:10272000000742D5D8F80010404611F00C0F08D031
:102730000068C0F3810002280AD1DBF800004002E3
:1027400006D42868800714D5E068012839D110E044
:10275000E068D8B1C6F800A0FFF7B6F8814605E0FA
:10276000FFF7B2F8A0EB09000228C1D8286880075B
:10277000F6D52868F82292FAA2F22169B2FA82F21A
:1027800020F0F8009140084328600EE03760FFF722
:102790009BF8814606E000BFFFF796F8A0EB090022
:1027A00002280FD828688007F6D42078000728D59B
:1027B0006D486169A1B1C0F800A0FFF785F88146B6
:1027C00008E0CAE079E000BFFFF77EF8A0EB09005F
:1027D000022872D862486C3000688007F4D510E097
:1027E0000760FFF771F8814606E000BFFFF76CF85D
:1027F000A0EB0900022860D859486C3000688007B7
:10280000F4D42078400749D555483830016841F064
:1028100080510160006800F08050009053480168CA
:1028200041F480710160FFF74FF8814606E000BF78
:10283000FFF74AF8A0EB090002283ED84B48006891
:10284000C005F5D5DFF81891207A09F1680989F8F3
:102850000000A06888B1FFF737F8009008E000BFDB
:10286000FFF732F80099411A41F2883081426CD862
:10287000D9F800008007F3D510E0FFF725F80090A5
:1028800008E000BFFFF720F80099411A41F28830B4
:1028900081425AD8D9F800008007F3D4A069E0B388
:1028A000D8F80010C1F38101022956D002283766FA
:1028B00004D0FFF709F804464AE046E0FFF704F8C1
:1028C000074604E0FFF700F8C01B02283DD828683F
:1028D0008001F7D4D4E90701084347F6C07292FAA1
:1028E000A2F2616AB2FA82F29140A26A4FF0FF331B
:1028F00003EB52024FF4403393FAA3F3B3FA83F39A
:102900009A40114308434FF0706292FAA2F2E16AD2
:10291000B2FA82F29140084300E01CE0CBF80000DC
:10292000C6F860A0FEF7D0FF044604E0FEF7CCFF37
:10293000001B022809D828688001F7D50BE000BFEA
:10294000FEF7C2FF001B022802D90320BDE8F88F62
:1029500028688001F4D40020F8E70120F6E70000A1
:102960000838024000004742800E47420070004095
:1029700070B5040005D00025A56294F8510010B18F
:1029800006E0012070BD84F85050204600F030F879
:10299000022084F851002068016821F040010160A4
:1029A000D4E901010843D4E90312114308436169E2
:1029B0000843218B01F400710843E1690843216A4F
:1029C0000843A16A084321680860A069042101EA5C
:1029D0001040616A0843216848602068C16921F499
:1029E0000061C1616565012084F85100002070BD5F
:1029F00000B500680E4987B0884217D10D48002104
:102A0000026842F480120260006800F480100590B1
:102A10004FF4607000900220CDE901010320039083
:102A20000520049069460448FEF762FE07B000BD29
:102A30000050014044380240001402402DE9F84F94
:102A4000044690F8500000260A9F9A4693460D4689
:102A50004FF0010801280ED0012084F85000FEF745
:102A600033FF814694F85100616801280CD0B1F51C
:102A7000827F07D102E00220BDE8F88FA16809B982
:102A8000042801D00226BDE055B1BBF1000F07D0EC
:102A9000BAF1000F04D094F85100012802D004E0EC
:102AA0000126AFE0052084F8510000206065C4F8DD
:102AB00038B0A4F83EA0A4F83CA02563A4F836A042
:102AC000A4F834A02064606420680168490603D437
:102AD000016841F040010160E068B0F5006F606896
:102AE00004D0E8B3E08E01283BD06AE010B1E08E5C
:102AF00001282ED1216835F8020BC860E08E401EF7
:102B0000E08626E0B8F1000F0DD0E08E58B12068C5
:102B10008168890707D535F8021BC160E08E401E29
:102B2000E0864FF00008E08F58B120688168C9073F
:102B300007D0C0682BF8020BE08F401EE0874FF0F3
:102B40000108781C05D0FEF7BFFEA0EB0900B842D3
:102B500046D2E08E0028D5D1E08F0028D2D136E0D1
:102B6000FFE7216815F8010B0873E08E401EE08630
:102B700027E000BFB8F1000F0DD0E08E58B12068FB
:102B80008168890707D515F8011B0173E08E401E87
:102B9000E0864FF00008E08F58B120688168C907CF
:102BA00007D0C0680BF8010BE08F401EE0874FF0A4
:102BB0000108781C05D0FEF787FEA0EB0900B8429B
:102BC0000ED2E08E0028D5D1E08F0028D2D13B462E
:102BD000012202212046CDF8009001F0ADFC08B1A1
:102BE00003260FE04A463946204601F095FC18B10D
:102BF00001262020606505E0A06818B92068C1683A
:102C000080680090012084F85100002084F8500072
:102C1000304631E74FF0E0210428086903D020F066
:102C200004000861704740F00400FAE7704710B5EF
:102C3000401EB0F1807F01D3012010BD4FF0E02491
:102C400060610F21601701F09CFA0020A06107204D
:102C50002061002010BD10B5FFF7E8FF10BD7047E0
:102C6000704730B590F83820012A19D0012200F8B9
:102C7000382F02234370D1E900342343D1E90245C0
:102C80002C4323430C6923434C69896923430B4339
:102C900050F8381C4B64427000210170084630BD6A
:102CA000022030BD30B590F83820012A20D0012212
:102CB00080F83820022380F8393003685C6824F0FB
:102CC00070045C6003685C680D682C435C6003689A
:102CD0009C6824F080049C6003689C6849680C43ED
:102CE0009C6080F83920002180F83810084630BDFB
:102CF000022030BD10B5040003D094F8390010B1A3
:102D000007E0012010BD002084F83800204600F0C4
:102D10000DF8022084F83900211D206801F098FD8B
:102D2000012084F83900002010BD000008B50168BA
:102D30002948B1F1804F0BD0284A914210D1016847
:102D400041F002010160006800F00200009008BD3F
:102D5000016841F001010160006800F00100F5E741
:102D60001F4A914207D1016841F0040101600068E7
:102D700000F00400EAE71B4A914207D1016841F0E4
:102D800008010160006800F00800DFE7164A914280
:102D900011D1016841F0100101600068012200F0CA
:102DA0001000009000213620FEF748FEBDE80840E4
:102DB0003620FEF738BE0D4A914202D10648001D6A
:102DC000BDE70B4A9142C2D1016841F04001016068
:102DD000006800F04000B9E74038024000040040BD
:102DE00000080040000C00400010004000040140BA
:102DF000001800400168CA6842F00102CA60006819
:102E0000016841F0010101600020704770B504467F
:102E100090F83800012817D0012584F83850022096
:102E200084F839002068826822F0770222F47F4219
:102E300082600868502837D00DDC202859D005DC86
:102E400088B3102841D151E0022070BD302853D002
:102E500040283AD13FE060282ED070280BD0B0F542
:102E6000805F03D0B0F5005F2FD110E0206881684B
:102E700021F0070115E0CB68D1E90121206801F0BC
:102E800052FD2168886840F0770088601DE0CB68BB
:102E9000D1E90121206801F046FD2068816841F4F4
:102EA0008041816011E01EE0CA684968206801F035
:102EB00003FE5021206806E0CA684968206801F0D6
:102EC0000CFE6021206801F038FD84F839500020A4
:102ED00084F8380070BDCA684968206801F0ECFDCC
:102EE00040212068EFE700212068ECE710212068EE
:102EF000E9E720212068E6E730212068E3E7704712
:102F000070B50446006801694FF00005C9438907A0
:102F100015D4C168C943890711D4E91E0161012094
:102F20002076206880698007204602D0FFF7E7FFFF
:102F300004E000F00BF9204600F08DF925762068BA
:102F40000169C943490717D4C168C943490713D464
:102F50006FF004010161022020762068806910F47E
:102F6000407F204602D0FFF7CAFF04E000F0EEF8F1
:102F7000204600F070F9257620680169C9430907E9
:102F800016D4C168C943090712D46FF00801016162
:102F9000042020762068C0698007204602D0FFF711
:102FA000AEFF04E000F0D2F8204600F054F9257698
:102FB00020680169C943C90617D4C168C943C90655
:102FC00013D46FF010010161082020762068C069D9
:102FD00010F4407F204602D0FFF791FF04E000F09C
:102FE000B5F8204600F037F9257620680169C94315
:102FF000C90708D1C168C943C90704D1891E016145
:10300000204600F045F920680169C943090609D442
:10301000C168C943090605D46FF0800101612046EB
:10302000FFF71DFE20680169C943490609D4C1683C
:10303000C943490605D46FF040010161204600F004
:1030400028F920680169C94389060BD4C168C943BE
:10305000890607D46FF0200101612046BDE8704069
:10306000FFF7FEBD70BD000070B5016800240225A9
:10307000012086B0B1F1804F09D02A4A914213D184
:1030800010200090CDE90154694627482CE00F211B
:103090000091CDE90154CDE903402448694600BFC1
:1030A000FEF726FB06B070BD214A914207D14FF4CE
:1030B00070400090CDE9015469461E4814E01E4B53
:1030C0001E4A1F4E994212D10090CDE90154694623
:1030D0001046CDE90345FEF70BFB4FF4E05000909E
:1030E000CDE9015469463046CDE90345D8E7154896
:1030F000814209D1E4200090CDE901540320CDE9BB
:10310000034069461046CBE70F488142CAD14FF4CD
:1031100010700090CDE901540920CDE903406946C3
:103120003046BDE7000400400004024000000240B9
:1031300000080040000C0240000C0040002002404B
:10314000001C02400004014000180040704770B5A8
:10315000044690F838000D4601280DD0012684F869
:103160003860022084F8390042B1042A18D0082AB5
:103170002AD00C2A4DD139E0022070BD206801F020
:10318000E5FB2068816941F008018161206881695F
:1031900021F004018161206881692A69114311E0ED
:1031A000206801F0FFFB2068816941F400618161C2
:1031B0002068816921F480618161206881692A69C0
:1031C00041EA0221816124E0206801F01DFC2068B1
:1031D000C16941F00801C1612068C16921F00401A1
:1031E000C1612068C1692A69114311E0206801F0BA
:1031F0003BFC2068C16941F40061C1612068C1697C
:1032000021F48061C1612068C1692A6941EA022113
:10321000C16184F83960002084F8380070BD10B5B1
:10322000040003D094F8390010B107E0012010BD6C
:10323000002084F83800204600F00CF8022084F8C2
:103240003900211D206801F003FB012084F83900BA
:10325000002010BD7047704710B504460068012279
:1032600001F056FB08492068884202D0074988428D
:1032700003D1416C41F4004141642068016841F090
:1032800001010160002010BD000001400004014068
:103290007047704710B504460068416994F83920BA
:1032A000C1F3C011212A0BD151B1416921F0800134
:1032B0004161206B08B1FEF732F8204601F07DFC39
:1032C0002068416994F83A20C1F38011222A0BD179
:1032D00051B1416921F040014161606B08B1FEF7D5
:1032E0001EF8204601F05BFC002010BD7047000076
:1032F00070B5026804461068D168536910F00F0F6A
:1033000051D003F0010501F4907635435DD0C2073A
:1033100005D0CA0503D5E26B42F00102E263420721
:1033200005D5DA0703D0E26B42F00202E2638207BE
:1033300005D5DA0703D0E26B42F00402E26302072C
:1033400005D5DA0703D0E26B42F00802E263E26BD4
:10335000002A34D0800604D5880602D5204601F024
:1033600035FC20684069E16BC0F3801001F0080172
:103370000143204624D001F012FC2068416949062F
:103380001AD5416921F040014161606BA0B11B4930
:103390000165606BFEF70AF8002810D0606B016DC4
:1033A000BDE87040084783060FD58B060DD5204633
:1033B000BDE8704001F00ABC2046FFF797FF70BDE2
:1033C000FFF794FF0020E06370BD030606D50B06EF
:1033D00004D52046BDE8704001F094BD4006F3D509
:1033E0004806F1D5D168204621F04001D160202166
:1033F00084F8391000F09AF970BD0000FF4A000807
:10340000F0B50646D0F800C04448002444490223E1
:103410000325072787B084452CD1086840F01000A9
:1034200008600868694600F010000590C0208DE82B
:10343000B9003C48FEF75CF93C4D3B4828604FF032
:103440000060C5E901044014C5E903406C61AC614A
:10345000EC612C6228466C62FEF78EF808B1FDF72D
:10346000F5FB7563022200212520AE63FEF7E6FA24
:10347000252019E02A4A2E4E121F2E48B44517D196
:10348000116841F400311160116801F400310591B7
:1034900060218DE8BA006946FEF72AF90022012171
:1034A0002620FEF7CBFA2620FEF7BDFA07B0F0BDC6
:1034B000214EB44515D1116841F480211160116885
:1034C00001F4802105914FF440718DE8BA006946FE
:1034D000FEF70EF9002201212720FEF7AFFA272080
:1034E000E2E716488445E1D1086840F02000086012
:1034F0000868694600F0200005904FF484408DE88C
:103500003900082004900E48FEF7F2F8002201214D
:103510004720FEF793FA4720C6E70000001001405D
:103520004438024000040240406402401404002079
:1035300000440040000C02400048004000140140DC
:103540000018024070B5044690F83A00202839D19E
:10355000A9B3A2B394F83800012833D0012084F82D
:103560003800A162A2850025E563222084F83A0094
:10357000636B1548D863636B14481864636B144815
:10358000D864606B134605650846666B2168024681
:103590003046091DFEF758F82068C16841F4807173
:1035A000C1602068416941F00101416120684169C1
:1035B00041F04001416184F83850002070BDFFE7C0
:1035C0000120FBE70220F9E7594B0008954B000862
:1035D0000F4B000890F83A30202B1DD1D1B1CAB161
:1035E00090F83830012B17D081628285C285002186
:1035F000C163222280F83A2080F8381001684A69B5
:1036000042F001024A610068C16841F49071C160F2
:1036100000207047012070470220704738B5114DD7
:103620000446A8420DD1642301220F4900F021F87D
:10363000286801684068009001220B492846FFF77E
:10364000C9FF0A4884420BD10068016840680090B5
:10365000BDE838400449012232390448FFF7BABFB7
:1036600038BD0000D4030020460E00209403002043
:1036700070472DE9F843044690F839001F46164676
:103680000D46202850D1A5B19EB194F838000128EC
:103690004AD0012084F838004FF00008C4F83C807C
:1036A000212084F83900FEF70FF9A6848146E684CC
:1036B00026E00120BDE8F883E08C401EE084A0688D
:1036C0004B46B0F5805F4FF000024FF0800120467E
:1036D000009703D001F047FCE8B90DE001F043FC8E
:1036E000C8B928882168C0F308004860206908B17B
:1036F0006D1C05E0AD1C03E0216815F8010B486066
:10370000E08C0028D8D14B4600224021204600976B
:1037100001F029FC08B10320CCE7202084F839000F
:1037200084F838800020C5E70220C3E77047FEE731
:1037300070B510EE100A2DED088BFCF7EDFE324C43
:1037400041EC1B0B84ED1CBB94ED180B53EC102BC0
:1037500094ED1A0B51EC100BFCF756FD41EC1A0BD3
:103760009FED2A0B84ED1EAB84ED180B9FED290B0A
:1037700004F1800553EC102B95ED040B51EC100B6C
:10378000FCF742FD41EC180B9FED240B85ED028BFD
:1037900053EC102BFCF738FD41EC100B51EC180BDF
:1037A00053EC102BFCF749FE41EC190B53EC1A2B90
:1037B00085ED069B51EC1B0BFCF7C7FD53EC192B59
:1037C000FCF7C9FD53EC1A2BFCF71EFD41EC1A0B5C
:1037D0009FED140B85ED00AB53EC192B51EC100B46
:1037E000FCF7B3FD53EC182BFCF7B5FDC5E904015C
:1037F00084ED1AAB51EC1A0BFCF7A1FEBDEC088B63
:1038000000EE100A70BD0000D00100200000000092
:10381000000000008D28ED0DBE30893FA3F43B036E
:10382000D9BD3040000000000000F03F30B585B049
:10383000002414220F496846FCF7D4FC6420FDF7ED
:103840003FFF752000F01AF80B494FEA0D0508708C
:1038500005EB4400417815F8140000F037F801201A
:10386000FDF72EFF641CE4B20A2CF1D305B0002052
:1038700030BD000008680008D0020020F8B5104EE6
:103880000446002240213046FEF718F844F080003C
:103890000C4C3725E21C20710123511C0A4800956D
:1038A000FFF7CCF8E21C0123511C07480095FFF7F5
:1038B000C5F8012240213046FEF700F8E078F8BD57
:1038C00000140240D0020020980B0020F8B5114FE0
:1038D0000E460446002240213846FDF7EFFF04F073
:1038E0007F000D4C3725621CA0700123511C0B4832
:1038F0000095FFF7A3F8A670621C0123511C07482E
:103900000095FFF79BF8012240213846FDF7D6FFCE
:103910000020F8BD00140240D0020020980B0020C7
:10392000104810B50E4901600321416000214FF499
:1039300000228160C0E903124FF44012C0E9052162
:10394000C1610162416281620121C162FDF7B4FA85
:10395000002803D0BDE81040FDF778B910BD000085
:1039600000640040180B0020104810B50E4901609B
:103970000321416000214FF400228160C0E903125D
:103980004FF44012C0E90521C161016241628162C8
:103990000121C162FDF790FA002803D0BDE8104074
:1039A000FDF754B910BD000000680040580B00201E
:1039B000094808B5016841F48001016000680022EF
:1039C00000F48000009011463A20FEF737F8BDE879
:1039D00008403A20FEF727B8303802402DE9F0437E
:1039E0004D4887B00024016841F010010160016872
:1039F00001F010010591016841F04001016001688A
:103A000001F040010591016841F002010160016887
:103A100001F002010591016841F0010101600168B6
:103A200001F001010591016841F0080101600168A0
:103A300001F008010591016841F48071016001689D
:103A400001F480710591016841F080010160016815
:103A500001F080010591016841F0200101600068DA
:103A6000DFF8B89000F02000059000228C21484635
:103A7000FDF724FF2A4F4FF4005600223146384606
:103A8000FDF71CFFDFF89C80002244F24001404615
:103A9000FDF714FF0C200125CDE900050320CDE939
:103AA000024069464846FDF723FE022000901E486A
:103AB000CDE9010469464846FDF71AFE0096CDE9B6
:103AC0000154694638460394FDF712FE44F2420061
:103AD0000090CDE90154694640460394FDF708FE85
:103AE000A802CDE90004694610480294FDF700FEE3
:103AF00080200090CDE90154694648460394FDF7C3
:103B0000F7FD022200210720FDF798FF0720FDF7AF
:103B10008AFF07B0BDE8F083303802400010024051
:103B2000001802400014024000001110000C024076
:103B3000104810B50E4901604FF4827141600021B8
:103B40008160C1604FF400720161C0E9051230224A
:103B5000C0E90721416281620A21C162FEF708FFC4
:103B6000002803D0BDE81040FDF770B810BD00007C
:103B700000500140980B002010B520488CB01E4921
:103B8000016053210024C0E9011440F6C311C0E9CB
:103B90000314FFF7AFF808B1FDF758F84FF4805061
:103BA000079007A91548FFF731F908B1FDF74EF85E
:103BB0001248FFF734FB08B1FDF748F86020009089
:103BC0004FF47A70CDE90104002269460B48049451
:103BD000FFF7BDFA08B1FDF739F804226946074836
:103BE0000194FFF7B4FA08B1FDF730F80348FFF786
:103BF0003BFA0CB010BD000000180040580D00202A
:103C000010B529488EB04FF080410024C0E900145F
:103C10008460C4600461FFF76DF808B1FDF716F821
:103C20004FF48050079007A91F48FFF7EFF808B13D
:103C3000FDF70CF81C48FFF7F2FA08B1FDF706F89B
:103C40000B940BA918480C94FFF72CF808B1FCF75B
:103C5000FDFF6020CDE9000402940022694612486D
:103C60000494FFF774FA08B1FCF7F0FF04226946E8
:103C70000D48FFF76CFA08B1FCF7E8FF0822694627
:103C80000948FFF764FA08B1FCF7E0FF0C22694627
:103C90000548FFF75CFA08B1FCF7D8FF0248FFF7C8
:103CA000E3F90EB010BD0000F00B002010B51E4867
:103CB0008EB01C49016053210024C0E90114C46086
:103CC0000461FFF717F808B1FCF7C0FF4FF480500C
:103CD000079007A91448FFF799F808B1FCF7B6FF59
:103CE0001148FFF79CFA08B1FCF7B0FF0B940BA941
:103CF0000D480C94FEF7D6FF08B1FCF7A7FF602033
:103D0000CDE9000402940022694607480494FFF7B5
:103D10001EFA08B1FCF79AFF0348FFF7A5F90EB0A9
:103D200010BD0000000400402C0C002010B52948F4
:103D30008EB027490024C0E900148460C460046187
:103D4000FEF7D8FF08B1FCF781FF4FF480500790D1
:103D500007A92048FFF75AF808B1FCF777FF1D487C
:103D6000FFF75DFA08B1FCF771FF0B940BA9194836
:103D70000C94FEF797FF08B1FCF768FF6020CDE9CF
:103D8000000402940022694612480494FFF7DFF908
:103D900008B1FCF75BFF042269460E48FFF7D7F92C
:103DA00008B1FCF753FF082269460A48FFF7CFF92C
:103DB00008B1FCF74BFF0C2269460648FFF7C7F92C
:103DC00008B1FCF743FF0348FFF74EF90EB010BDF2
:103DD00000080040680C002010B529488EB0274923
:103DE0000024C0E900148460C4600461FEF782FF0F
:103DF00008B1FCF72BFF4FF48050079007A920482B
:103E0000FFF704F808B1FCF721FF1D48FFF707FA98
:103E100008B1FCF71BFF0B940BA919480C94FEF793
:103E200041FF08B1FCF712FF6020CDE900040294C5
:103E30000022694612480494FFF789F908B1FCF79B
:103E400005FF042269460E48FFF781F908B1FCF727
:103E5000FDFE082269460A48FFF779F908B1FCF728
:103E6000F5FE0C2269460648FFF771F908B1FCF728
:103E7000EDFE0348FFF7F8F80EB010BD000C00404F
:103E8000A40C00201CB50E480C4900240160A72199
:103E9000C0E9011440F2E731C160FEF72BFF08B121
:103EA000FCF7D4FE0094694605480194FEF7FAFE3B
:103EB000002801D0FCF7CAFE1CBD00000010004025
:103EC000E00C002010B5344894B032490160A721BD
:103ED0000024C0E90114C46004614461FEF70AFFD4
:103EE00008B1FCF7B3FE4FF480500E900EA92A489B
:103EF000FEF78CFF08B1FCF7A9FE2748FFF78FF902
:103F000008B1FCF7A3FE129412A923481394FEF7FC
:103F1000C9FE08B1FCF79AFE6020CDE900040294C6
:103F2000039404940594002269461B480694FFF705
:103F30000EF908B1FCF78AFE042269461648FFF71D
:103F400006F908B1FCF782FE082269461248FFF71D
:103F5000FEF808B1FCF77AFE0C2269460E48FFF71E
:103F6000F6F808B1FCF772FE0794089409944FF430
:103F700000500A94CDE90B4007A907480D94FEF7BD
:103F800070FE08B1FCF762FE0348FFF76DF814B04D
:103F900010BD0000000401401C0D00200D4810B5AC
:103FA0000B4901600C49416000214FF4806281603F
:103FB000C0E903120422C0E905210A46C161FDF7E8
:103FC000EBFC002803D0BDE81040FCF73FBE10BD5D
:103FD0000010014014030020A08601000D4810B518
:103FE0000B4901604FF4E1314160002181600C22F6
:103FF000C160C0E9041281610A46C161FDF7CCFCD1
:10400000002803D0BDE81040FCF720BE10BD000022
:1040100000440040540300200D4810B50B490160D6
:104020004FF4E1314160002181600C22C160C0E9A0
:10403000041281610A46C161FDF7AEFC002803D07D
:10404000BDE81040FCF702BE10BD00000048004073
:10405000940300200D4810B50B4901604FF4E13185
:104060004160002181600C22C160C0E904128161BD
:104070000A46C161FDF790FC002803D0BDE810405E
:10408000FCF7E4BD10BD000000140140D403002083
:1040900010B500220849094801F02FFA08490748DD
:1040A00001F0D9FB0749054801F088F8BDE8104048
:1040B000024801F01DBC00001C01002098040020F3
:1040C000E0000020B0020020FEE700002B4A10B5FF
:1040D000516B0968A1F50073013B15D05B1E1ED022
:1040E0005B1E27D0B1F5017F3CD09B1E2ED05B1EFE
:1040F00009D10021546B01F11403E35C4418491CFD
:10410000A3770629F6DB10BD5FF00001546B01F1C7
:104110001403E35C4354491C0429F7DB10BD002160
:10412000546B01F11403E35C4418491CA371042986
:10413000F6DB10BD5FF00001546B01F11403E35C8A
:104140004418491C23730429F6DB10BD5FF00001FD
:10415000546B01F11403E35C4418491C23760629CF
:10416000F6DB10BD5FF00001546B01F11403E35C5A
:104170004418491CA3740429F6DB10BD180B002059
:1041800070470907090E002806DA00F00F0000F159
:10419000E02080F8141D704700F1E02080F8001442
:1041A000704700000148FDF7C5BD0000BC060020B7
:1041B0002DE9F84F0F46C1EBC70100EB81058246A0
:1041C0000668D5E91301441A286C3835A04200D29C
:1041D0000446E01C4FEA900806EB471916E0441A23
:1041E000A868A04200D20446E01C4FEA90089AF862
:1041F00010000090A3B2FAB23046E96802F0F6F877
:10420000E8682044E860A8692044A861D9F8180942
:1042100080B2404505D9D5E90501814201D2002887
:10422000DDD134B90120D6F83418B8408143C6F83E
:1042300034180020BDE8F88F7047000070B59FED7E
:10424000620A624C84ED050AB7EE000A84ED060AA4
:10425000B2EE040A84ED070ADFED5D1AC4ED091A17
:104260009FED5C0A04F1580084ED0A0A84ED0B0A04
:1042700090ED012AA0F1D80580ED002AB5F92410AF
:1042800000EE901A5449F8EEE00AC0ED010AB5F9C3
:104290002E0001EE100A04F15000A0F10806B8EE5D
:1042A000C11A84ED011A90ED013A31EE601A80EDE9
:1042B000003A80ED011AD4ED0C2A31EE433A71EE4A
:1042C000222A21EE211AC4ED0C2A84ED0E3A00EECA
:1042D000221A00EE031A30EEC20A10EE100A85ED23
:1042E0001F1A96ED011A884286ED001A86ED010A22
:1042F00004D810EE100A3949884201DD86ED011A12
:1043000096ED010A84ED000AFFF712FA2F4886EDB8
:10431000010A403090ED011A80ED001AD5ED1F0A18
:1043200030EEC00A80ED010AD4ED080A30EE411AE1
:1043300070EE200AC4ED080A84ED0D1AD4ED051ABA
:1043400020EE210AD4ED061A01EEA00AD4ED070AE8
:1043500000EE810AD4ED030A70EE200AC4ED020AD1
:10436000BDEEE00A10EE100A206100EE100AB8EE71
:10437000C00A30EEC00A84ED030A95ED1D0AB8EEBE
:10438000C01AF4EEC10AF1EE10FA03DDB8EEC00A6D
:1043900084ED020A95ED1E0AD4ED020AB8EEC01AA9
:1043A000F4EEC10AF1EE10FA03D2B8EEC00A84EDC1
:1043B000020AE16B42F21072491CE163914201DD95
:1043C0000021E16370BD000000004843D0010020DF
:1043D0008FC2753C0000000000803BC500803B455B
:1043E000F0B42F48C178012954D12E490A885505C7
:1043F0006D0D05634A784FEAD2038A7843EA421387
:10440000C3F30A044463CB784FEA921242EA83036F
:104410000A7943EA8223C3F30A0383634E794FEA9E
:10442000520242EAC612C2F30A024FEA9617C6F3D4
:104430000116C263C0E91076CE8886800E89C680D8
:104440004E8906810E7B06704E7B4670C98941817C
:1044500001F001068681C1F34006C681C1F38006E2
:104460000682C1F3C0064682C1F300160683C1F37B
:1044700040164683C1F380168682C1F3C011C18203
:104480004FF000018170C17003D014B10BB102B1C3
:1044900001218164F0BC122202490348FFF752B89F
:1044A00050010020040B002014030020F0B4154A32
:1044B000508840BA06B214488683118949BA0DB2B1
:1044C000C583D18949BA0CB20484918A49BA0BB226
:1044D0004384118B49BA09B28184D28B52BAC28407
:1044E0000022F61C00D18283ED1C00D1C283E41CA3
:1044F00000D10284DB1C00D14284F0BC03A001F097
:104500008BBF0000740400205001002065636F64BD
:1045100065203A2025640A0038B50B46009204460F
:104520000022802100F008F8002804D0606D40F0DF
:1045300020006065032038BD2DE9F0411D46174677
:104540000E460446DDF8188035E0681C33D02DB1E6
:10455000FDF7BAF9A0EB0800A8422CD32068416807
:1045600021F0E00141606068B0F5827F0BD1A06866
:10457000B0F5004F02D0B0F5806F04D1206801681B
:1045800021F040010160A06AB0F5005F0AD1206807
:1045900001684DF6FF72114001602068016841F426
:1045A00000510160012084F85100002084F850007F
:1045B0000320BDE8F0812068806836EA000004D05E
:1045C0000020B842C1D10020F3E70120F9E770478D
:1045D000081A00EE100ADFED151A1548F8EEC00AA9
:1045E00000EE102A00EB8300B7EE001AB8EEC00A06
:1045F000104A114900EEA10AD0ED001AC0ED000AE0
:1046000070EEE11A01EE210A10EE100A904202DD6E
:104610009FED0A0A05E010EE100A884201D99FEDCD
:10462000080ABDEEC00A10EE100A70470AD7A33C74
:10463000F40A002000C05A4500C05AC500C05A45BF
:1046400000C05AC510B5FDF745F9BDE81040FEF7AA
:1046500002BB000030B5254893B00025016841F049
:1046600080510160006800F080501190204801687E
:1046700041F4404101600068022400F44040119080
:104680000120009001908005CDE906400C200890A3
:104690004FF4A870CDE9090407200B906846FDF798
:1046A000F5FF00B1FEE70CA90F2081E831004FF4BF
:1046B000A0500F904FF48050109005210CA8FDF7EA
:1046C000B7FE00B1FEE7FDF771FF4FF47A71B0FB62
:1046D000F1F0FEF7ACFA0420FEF79CFA0022114636
:1046E000501EFDF7ABF913B030BD0000403802405A
:1046F000007000401048016841F4700101600F48EB
:10470000016841F0010101600C4A0021083211608A
:1047100002680B4B1A400260031D0A4A1A600268C5
:1047200022F48022026005480C30016002495806DC
:10473000803908607047000088ED00E000380240D2
:10474000FFFFF6FE103000242DE9FE4F3048FEF743
:10475000D7FBFFF745FEFFF7A9FE2F482D4C00239E
:1047600001682E482268B0F90000FFF731FF206091
:104770002C482B4D012301682B482A68B0F9000012
:10478000FFF726FF28602A48284E0223016829489F
:104790003268B0F90000FFF71BFF30602748264F52
:1047A0000323016826483A68B0F90000FFF710FFBC
:1047B0003860FFF743FDDFF88CB0DFF88C904FF0E6
:1047C0000008CBF80000C9F8008039884FF0080ACB
:1047D0004FF4007209B28DE80604308803B22888CD
:1047E00002B2208801B21948FCF794F840F2FF1297
:1047F000CDE90082CDF808A0B9F80000002302B28C
:10480000BBF8000001B21148FCF784F8BDE8FE8F48
:10481000E00C00209C010020B40100206C0100206D
:10482000A0010020B80100206E010020A40100209A
:10483000BC01002070010020A8010020C001002060
:1048400072010020AC010020B0010020180B0020F4
:10485000F0B50268234B244D244E254F254C4FF0D4
:10486000804C984209D0604507D0A84205D0B0429C
:1048700003D0B84201D0A04204D122F0700E4A68A1
:1048800042EA0E0298421BD0604519D0A84217D0C8
:10489000B04215D0B84213D0A04211D0164DA84254
:1048A0000ED0164DA8420BD0154DA84208D0154D7C
:1048B000A84205D0144DA84202D0144DA84203D1FD
:1048C00022F44075CA682A4302608A68C2620A6894
:1048D0008262984201D0A04201D10969016301219D
:1048E0004161F0BD000001400004004000080040AC
:1048F000000C004000040140004001400044014021
:104900000048014000180040001C0040002000400A
:1049100010B50123046A8B409C430462036A8A40F9
:104920001343036210BD10B5846842EA032224F4E5
:104930007F440A432243826010BD826822F07002E5
:104940000A4342F0070181607047000030B5026AF7
:1049500022F001020262026A436884690D6824F051
:104960007304254322F002048A6822430B4CA042C0
:1049700002D00B4CA0420BD122F00804CA6823F4E9
:10498000407322434C6922F004021C438B69234389
:104990004360856149684163026230BD00000140A7
:1049A0000004014030B5026A22F010020262026A7D
:1049B000436884690D6824F4E64444EA05248D685C
:1049C00022F0200242EA05120D4DA84202D00D4D00
:1049D000A8420ED1CD6822F0800242EA05124D694C
:1049E00023F4406343EA85038D6922F0400243EAE1
:1049F00085034360846149688163026230BD0000C1
:104A0000000001400004014030B5026A22F48072C7
:104A10000262036A4268C46923F4007324F07305D8
:104A20000C682C438D6843EA05230D4DA84202D043
:104A30000C4DA8420ED1CD6823F4006343EA052350
:104A40004D6922F4405242EA05128D6923F48063D5
:104A500042EA05124260C4614968C163036230BD25
:104A6000000001400004014030B5026A22F4805287
:104A70000262046A4268C3690D6823F4E64343EAAC
:104A800005238D6824F4005444EA0534084DA842F7
:104A900002D0084DA84204D14D6922F4804242EA76
:104AA00085124260C36149680164046230BD000040
:104AB000000001400004014010B5036A046A24F0BC
:104AC00001040462846924F0F00444EA021423F02F
:104AD0000A020A438461026210BD10B5036A23F022
:104AE000100303628369046A23F4704343EA0232C9
:104AF00024F0A00343EA01118261016210BD10B5E8
:104B0000806B0021C185C184FEF7F0FB10BD70B53C
:104B1000846B2068406994F83910C0F3C0100025F8
:104B2000212904D118B1E584204600F046F8206818
:104B3000406994F83A10C0F38010222904D118B1CA
:104B4000E585204600F02BF8E06B40F01000E063B4
:104B50002046FEF7CBFB70BD10B50146806B09689F
:104B60000968C90513D40021C1850168CA6822F407
:104B70008072CA6001684A6922F001024A610168D4
:104B80004A6922F040024A61202180F83A10FEF77B
:104B900045FD10BD10B5806BFEF76AFD10BD0168C4
:104BA000CA6822F49072CA6001684A6922F0010260
:104BB0004A61202180F83A1070470168CA6822F0E3
:104BC000C002CA60202180F83910704710B590F8F3
:104BD0003A10222901D0022010BD8168B1F5805F12
:104BE00011D00169002901681FD0496801F07F03D5
:104BF000816A4A1C82620B70C18D491E0904090C2E
:104C0000C18518D026E00269816A002A02685268CC
:104C100005D0D2B20A80816A491C8162ECE7C2F3F6
:104C200008020A80816A891CF7E74A68816A4B1C7E
:104C300083620A70E0E70168CA6822F49072CA6071
:104C400001684A6922F001024A61202180F83A1085
:104C5000FEF7E4FC002010BD2DE9F0410446006899
:104C6000016921F44052E168114301612168C8687B
:104C700049F20C6290432369A268E5691A436369AB
:104C80002B431A430243CA602168486920F44072EA
:104C9000A06910434861E1696425B1F5004F974868
:104CA000974A21684FF032083FD0914201D08142AB
:104CB0007CD1FDF799FC00EBC00101EB00106168AD
:104CC0008900B0FBF1F6FDF78FFC00EBC00101EBB2
:104CD000001061688900B0FBF1F0B0FBF5F06FF0F7
:104CE0001801484306EB800108EB0110B0FBF5F01A
:104CF00000F0F006FDF778FC00EBC00101EB0010BE
:104D000061688900B0FBF1F0B0FBF5F006EB00162E
:104D1000FDF76AFC00EBC00101EB0010616889003F
:104D2000B0FBF1F7FDF760FCD2E0914201D0814287
:104D30003DD1FDF759FC00EBC00101EB00106168AB
:104D40004900B0FBF1F0B0FBF5F00601FDF74CFCBB
:104D500000EBC00101EB001061684900B0FBF1F706
:104D6000FDF742FC00EBC00101EB00106168490057
:104D7000B0FBF1F0B0FBF5F06FF01801484307EB22
:104D8000800108EBC100B0FBF5F000F0F80006EB85
:104D90004006FDF729FC00EBC00101EB0010616843
:104DA0004900B0FBF1F7FDF71FFC3CE055E0FDF7D3
:104DB00003FC00EBC00101EB001061684900B0FB8F
:104DC000F1F0B0FBF5F00601FDF7F6FB00EBC001DA
:104DD00001EB001061684900B0FBF1F7FDF7ECFB57
:104DE00000EBC00101EB001061684900B0FBF1F07D
:104DF000B0FBF5F06FF01801484307EB800108EBBA
:104E0000C100B0FBF5F000F0F80006EB4006FDF73E
:104E1000D3FB00EBC00101EB001061684900B0FB5F
:104E2000F1F7FDF7C9FB00EBC00101EB0010616871
:104E30004900B0FBF1F0B0FBF5F06FF0180148430A
:104E400007EB800108EBC100B0FBF5F000F00700B4
:104E5000216830448860BDE8F081FDF7ADFB00EBD0
:104E6000C00101EB001061688900B0FBF1F6FDF7AD
:104E7000A3FB00EBC00101EB001061688900B0FBEF
:104E8000F1F0B0FBF5F06FF01801484306EB80013C
:104E900008EB0110B0FBF5F000F0F006FDF78CFB1D
:104EA00000EBC00101EB001061688900B0FBF1F07C
:104EB000B0FBF5F006EB0016FDF77EFB00EBC00142
:104EC00001EB001061688900B0FBF1F7FDF774FB9E
:104ED00000EBC00101EB001061688900B0FBF1F04C
:104EE000B0FBF5F06FF01801484307EB800108EBC9
:104EF0000110B0FBF5F000F00F00A9E7001401402D
:104F00000010014090F83910212901D0022070478B
:104F10008168B1F5805F016A0BD04A1C02620268A9
:104F200009785160C18C491E0904090CC1840ED056
:104F300017E009880268C1F308015160016900297E
:104F4000016A02D0491C0162ECE7891CFBE7016899
:104F5000CA6822F08002CA600068C16841F040015E
:104F6000C160002070472DE9F041984617460E4673
:104F70000446069D1DE0681C1BD02DB1FCF7A4FC67
:104F8000A0EB0800A84214D92068C16821F4D071B0
:104F9000C1602068416921F001014161202084F84D
:104FA000390084F83A00002084F838000320BDE876
:104FB000F0812068006836EA000004D00020B84282
:104FC000D9D00020F3E70120F9E700000D4808B52B
:104FD00000680168C1F30011002911D0016841681F
:104FE0000091016840680748FEF754F906480068D8
:104FF00040680649C0F11200087005490120087098
:1050000008BD0000140300201404002052010020F9
:10501000530100200148FEF76BB900005403002043
:105020000148FEF765B90000940300200148FEF72F
:105030005FB90000D4030020D0F8180220B100218D
:10504000C0F81412084670470220704770B5054634
:10505000D0F8184200F00BFBC4F80C02D5F8180287
:1050600048B1D5F81C12D4F80402CA6804F50371DB
:105070009047002070BD022070BD70B50446002529
:10508000812100F056FA0121204600F052FA8221D7
:10509000204600F04EFAD4F8180250B1D4F81C02A1
:1050A00004F5067440688047206801F08BFA002000
:1050B0002060284670BD10B5D0E9864159B194F8FA
:1050C0000002FF2807D08B6894F8012221469847F8
:1050D000FF2084F80002002010BD00000A2101809A
:1050E00000487047080000204321018000487047B5
:1050F0005800002043210180004870471400002020
:1051000043210180004870479C0000202DE9F041B8
:105110000446007C00254FF4007670B34023022241
:105120008121204600F0ECFA402302220121204692
:1051300000F0E6FA082303228221204600F0E0FA7C
:105140004FF4077001F0F2FAC4F81802F0B1074604
:10515000D4F81C02006880470020C7F81402C7F882
:105160001802207CD7F8042290B140230121204668
:1051700000F0D0FA2846BDE8F081FFE7334602226E
:105180008121204600F0BCFA3346CEE70125F1E745
:105190003346EBE710B5D0F8181269B1027C002A4B
:1051A000D1F8042205D04023012100F0B3FA0020F9
:1051B00010BD4FF40073F7E7022010BD0246022035
:1051C000002902D00020C2F81C127047D0F8180243
:1051D000C0F8041200207047D0F81802C0F810225E
:1051E000C0F808120020704770B50646D0F8185273
:1051F00008780C4610F0600121D0202927D1E288E0
:10520000AAB10006607807D5D6F81C128B6829462B
:105210009847E288294617E085F80002A07985F8CA
:105220000102E2882946304600F038F80FE0D6F84F
:105230001C12607800228B682146984707E060784E
:105240000A2804D103490122304600F041F8002029
:1052500070BD00000400002010B5D0F81422526880
:105260009047002010BD134610B50A46002100F0FB
:1052700051FA002010BD134610B50A46002100F077
:10528000CFFA002010BD10B50446802100F0B1FA1D
:105290002046BDE81040002100F0ABBA10B5032352
:1052A000C0F80821C0F8F431C0F80C2113460A46B2
:1052B000002100F02FFA002010BD10B505210023B9
:1052C000C0F8F4111A46194600F024FA002010BD67
:1052D00010B502238261C0F8F431C26113460A4658
:1052E000002100F09DFA002010BD10B5042100231C
:1052F000C0F8F4111A46194600F092FA002010BDC9
:1053000010B50A46024903A000F0D4F8004810BDC9
:10531000740A002043444320436F6E6669670000AF
:1053200012200880004870473C01002010B50A4652
:10533000024903A000F0BEF8004810BD740A002026
:1053400043444320496E74657266616365000000E2
:1053500004200880004870473801002010B50A4634
:10536000024903A000F0A6F8004810BD740A00200E
:1053700053544D6963726F656C656374726F6E69C7
:105380006373000010B50A46024903A000F092F8CA
:10539000004810BD740A002053544D333220566922
:1053A000727475616C20436F6D506F7274000000F1
:1053B00010B50A46024903A000F07CF8004810BD71
:1053C000740A0020303030303030303030303141ED
:1053D00000000000F8B5044648880D46010A082977
:1053E0004BD2DFE801F04A0409174A4A4048D4F892
:1053F0001012207C0A6832E0207C02260028D4F8B3
:10540000140205D0C16A684688470146467041E0EB
:10541000816AF8E7C0B206282FD2DFE800F003085F
:105420000D12171CD4F81012207C4A6817E0D4F82B
:105430001012207C8A6812E0D4F81012207CCA680E
:105440000DE0D4F81012207C0A6908E0D4F810129C
:10545000207C4A6903E0D4F81012207C8A696946EE
:105460009047014616E0207C38B9D4F81402416B0D
:1054700068468847F5E7207C20B129462046FFF79B
:1054800002FFF8BDD4F81402016B68468847014654
:1054900007204870BDF800000028F2D0EA88002AF2
:1054A000EFD0824200D90246ADF800202046FFF737
:1054B0000FFFF8BD70B5002300281DD0044600255D
:1054C00002E06D1CEDB2641C2678002EF9D1022496
:1054D00004EB45041480CC545B1C0322CA54002402
:1054E0005B1C06E0CA545B1CDAB28C54521CD3B26B
:1054F000401C0278002AF5D170BD10B580B1D0F8FB
:10550000143213B10023C0F8143209B1C0F81012DC
:10551000012180F8FC11027000F0AEF8002010BDEF
:10552000022010BD10B5D0F82002FCF71CFB0020B3
:1055300010BD10B5D0F82002FCF7F3FA002010BD22
:105540002DE9F0411746044641B1D4F814024269EE
:105550008AB394F8FC01032842D043E0D4F8F41154
:10556000002504F11400022933D1D0E902639E42E0
:1055700007D9F31A83609AB239462046FFF77BFEBB
:1055800012E04068B0FBF3F103FB1101A1B99842AE
:1055900012D3D4F8F81188420ED2002211462046C8
:1055A000FFF769FEC4F8F85100231A461946204651
:1055B00000F0B0F80DE012E0D4F81402C16829B18F
:1055C00094F8FC01032801D1204688472046FFF7C4
:1055D00074FE94F80002012804D184F8005201E01E
:1055E000204690470020BDE8F08170B5154604467E
:1055F00041B1D4F8140282693AB394F8FC0103284B
:1056000024D025E0D4F8F41104F5827003291FD1C9
:10561000D0E902218A420BD9531A8360084683429B
:1056200000D303469AB229462046FFF71CFE0FE03E
:10563000D4F81402016929B194F8FC01032801D1BE
:10564000204688472046FFF750FE01E0204690475D
:10565000002070BD0020704710B5012180F8FC11BA
:10566000D0F81422017952689047002010BDD0F87C
:105670002002FCF7A0BA000010B5017841BB154923
:105680000222C1F8B403C0F820124FF0A040086015
:10569000042048600020C1E90320C1E90502C86177
:1056A00008624862C86208630846FCF7C5FD08B195
:1056B000FBF7CCFA80210748FCF7F2F940220021E1
:1056C0000448FCF7F1F9802201210248FCF7ECF9CB
:1056D000002010BDBC0600200A0601F07F01D0F8B2
:1056E0002002C1EBC10100EB810002D590F83A0025
:1056F000704790F8DE017047002070470020704727
:1057000010B51C461346D0F820022246FCF75DFA7D
:10571000002010BD10B5D0F82002FCF781FA00205F
:1057200010BD70B50022044640231146FFF7E8FF84
:1057300040252B46002280212046C4F81051FFF757
:10574000DFFF0120256284F8FC01D4F8180228B19B
:10575000D4F814022179426820469047002070BD99
:1057600090F8FD1180F8FC110020704710B590F8FA
:10577000FC11032904D1D0F81412C96901B188477A
:10578000002010BD01740020704710B5D0F8200231
:10579000FCF708FE002010BD70B5044600F502704D
:1057A000054600F044F80120C4F8F401B4F80E02F4
:1057B000C4F8F80194F8080210F01F010AD001297A
:1057C0000DD0022910D000F08001204600F011F821
:1057D000002070BD2946204600F08FF8F8E72946E2
:1057E000204600F071F9F3E72946204600F0FEF864
:1057F000EEE710B5D0F82002FCF741FA002010BD0A
:1058000010B5D0F82002FCF7E6FD002010BD90F89E
:10581000FC1180F8FD11042180F8FC110020704774
:1058200010B5D0F82002FCF75AFA002010BD0A7813
:1058300002704A7842708A78CB7802EB0322428069
:105840000A794B7902EB032282808A79C97902EBCB
:105850000121C18070470246002011B1C2F8141224
:1058600070470220704710B5D0F8142202241AB1F4
:105870001268904700B90024204610BD70B50E464E
:105880001A4D897804462970012928D894F8FC011A
:10589000022802D0032822D105E099B103206160DB
:1058A00084F8FC0109E091B1606888420AD0C1B275
:1058B0002046FFF7D1FC297861602046FFF7D3FF2F
:1058C00002280CD02046BDE87040FFF70EBD022034
:1058D00084F8FC0120466160FFF7BEFCF2E7314628
:1058E0002046BDE87040FFF7CEBC00001801002044
:1058F00010B5FFF785FF002010BD2DE9F04100260F
:105900004B78012532460A2B43D2DFE803F03C589E
:105910004251420805422A27FFF75CFD63E0044636
:105920008888C8B9C888B8B9887800F07F0794F823
:10593000FC01032810D084F8FE7139462046FFF799
:1059400024FF2046FFF7D1FC1FB1022084F8FC01A0
:1059500049E084F8FC5146E020461AE0FFF78EFF4C
:1059600041E0CB88012B14D190F8FC31022B02D0FE
:10597000032B0ED104E08260012200F1080114E043
:105980000122011D11E090F8FC21022A04D0032A13
:1059900002D0FFF778FC26E0C560D0F8041209B108
:1059A0000321C160022200F10C01FFF791FC1AE013
:1059B00004464888012816D1C4F804520BE0044676
:1059C00090F8FC01022801D00328C5D1488801289D
:1059D00009D1C4F80422D4F8140282682046904702
:1059E0002046FFF782FC3046BDE8F08170B50D46D9
:1059F0000446287800260979C0F34110012806D012
:105A00006878A0B301281FD003283FD107E0D4F85D
:105A100014022946826820469047002070BD94F801
:105A2000FC01022817D003282CD1688828B921B19D
:105A3000802902D02046FFF7DCFED4F81402294664
:105A400082682046904713E094F8FC01022802D0B7
:105A5000032817D103E0C9B180291BD116E068885B
:105A6000A0B9480604D02046FFF75CFDE5E703E057
:105A70002046FFF73AFC09E094F8FC01022807D021
:105A800003280BD029462046FFF7FDFB304670BDAA
:105A90004806FBD02046FFF7ACFEF7E7080601F00A
:105AA0007F0004EB001501D5143501E005F5827582
:105AB0002046FFF711FE00B101202860022229468E
:105AC0002046FFF705FCE1E770B5054690F8FC01BC
:105AD0000C4603280DD1207901280AD8D5F81402E4
